:020000022000DC
:102C000000800020F9A9020039AA02003BAA0200B4
:102C100000000000000000000000000000000000B4
:102C20000000000000000000000000003DAA0200BB
:102C300000000000000000003FAA020041AA0200BC
:102C4000558C020043AA020061690200C597020088
:102C500043AA020000000000DD910200258E020060
:102C600043AA020043AA020043AA020043AA0200A8
:102C700043AA020043AA020043AA020043AA020098
:102C800043AA02007576020043AA020043AA02008A
:102C90003177020043AA0200D1AC020043AA02002D
:102CA00043AA020043AA0200000000000000000046
:102CB0000000000000000000000000000000000014
:102CC00010B5064C2378002B07D1054B002B02D002
:102CD000044800E000BF0123237010BDB42200208F
:102CE0000000000018E30200084B10B5002B03D0D1
:102CF0000749084800E000BF07480368002B00D1DF
:102D000010BD064B002BFBD09847F9E700000000F0
:102D1000B822002018E30200A022002000000000DA
:102D2000164B002B00D1144B9D46402292029A1A5A
:102D3000924600218B460F461348144A121A00F09F
:102D400065F80F4B002B00D098470E4B002B00D09E
:102D500098470020002104000D000D48002802D0F3
:102D60000C4800E000BF00F02DF82000290000F022
:102D700059F800F011F8C04600000800008000205B
:102D80000000000000000000B422002054370020A2
:102D90000000000000000000084B10B50400002BEC
:102DA00002D0002100E000BF054B1868836A002BA9
:102DB00000D09847200000F031F8C0460000000025
:102DC00010BC020070B500260C4D0D4C641BA41005
:102DD000A64209D1002608F00FFF0A4D0A4C641BD9
:102DE000A410A64205D170BDB300EB589847013638
:102DF000EEE7B300EB5898470136F2E7982200203F
:102E000098220020982200209C2200200300821893
:102E1000934200D1704719700133F9E7FEE7C046CD
:102E200048DF7047F8B5002003F088FE39490400F8
:102E3000032003F097FE3849032003F093FE37493F
:102E4000032003F08FFE002C02D0200004F070FB62
:102E5000002001F053FF324F3868082803D00823C0
:102E60003B6001F04BFF2F4E3068102803D0102339
:102E7000336002F053F92C4D2868042803D0042352
:102E80002B6002F015FA294B1868072804D0072395
:102E9000264A136002F068FC254B18680E2804D0FF
:102EA0000E23234A136003F037F8224B18680628D4
:102EB00004D006231F4A136002F0B6FD1E4C2068A2
:102EC000062803D00623236003F0D8F93B68082BBB
:102ED000C1D13368102BBED12B68042BBBD1134B4F
:102EE0001B68072BB7D1124B1B680E2BB3D1114BAC
:102EF0001B68062BAFD12368062BACD103F0B0FFC3
:102F00000028A8D1FFF78CFF0028A4D004F010FB04
:102F1000A1E7C04614BC020067BC020081BC0200ED
:102F2000602000207420002088200020A0200020A5
:102F3000E8200020CC200020FC200020A0DF7047EB
:102F4000A6DF704763DF704730B5934989B003202F
:102F500003F008FE01220120904B5242904C1A804F
:102F60009049914B220088700B80FFF7E7FF002803
:102F700001D004F0DDFA8D49102204A808F0C6F94A
:102F80008B4D04A82900FFF7DDFF002801D004F0D5
:102F9000CFFA884A2B7821880392874A8748029281
:102FA0000222019203320092854A03F0D3FA0028EC
:102FB00001D004F0BDFA834A2B7821880392824A1B
:102FC000824802920222019292180092804A03F0F3
:102FD000C1FA002801D004F0ABFA7E4A2B78218890
:102FE00003927D4A7D48029206220192013A0092A4
:102FF0007B4A03F0AFFA002801D004F099FA794A2D
:103000002B7821880392784A784802921022019204
:10301000073A0092764A03F09DFA002801D004F0A6
:1030200087FA744A2B7821880392734A7348029274
:1030300008220192033A0092714A03F08BFA0028A9
:1030400001D004F075FA6F4A2B78218803926E4AFA
:103050006E48029201220192033200926C4A03F000
:1030600079FA002801D004F063FA6A4A2B782188A3
:103070000392694A69480292102201920B3A009227
:10308000674A03F067FA002801D004F051FA654A54
:103090002B7821880392644A64480292102201929C
:1030A0000B3A0092624A03F055FA002801D004F06E
:1030B0003FFA604A2B78218803925F4A5F48029268
:1030C00004220192033A00925D4A03F043FA002879
:1030D00001D004F02DFA5B4A2B78218803925A4ADA
:1030E0005A4802920122019204320092584A03F097
:1030F00031FA002801D004F01BFA564A2B782188B7
:103100000392554A55480292042201920092544A71
:1031100003F020FA002801D004F00AFA514A2B7873
:1031200021880392504A51480292012201920B32A7
:1031300000924F4A03F00EFA002801D004F0F8F98B
:103140004C4A2B78218803924B4A4C480292012228
:103150000192043200924A4A03F0FCF9002801D09F
:1031600004F0E6F9474A21882B780392464A4748FB
:10317000029202220192013A0092454A03F0EAF9D2
:10318000041E01D004F0D4F94249032003F0EAFC04
:10319000200009B030BDC04695C102004C2000207F
:1031A000942300209623002000FFFFFFA3BC020011
:1031B0009A230020002300205C230020BFC10200CE
:1031C00001FF0000282300207E230020CEC1020042
:1031D00002FF00002023002077230020D8C1020036
:1031E00003FF00003023002080230020DFC1020005
:1031F00004FF0000082300205E230020F4C1020029
:1032000005FF0000E8220020442300200FC2020036
:1032100006FF0000F82200204C23002020C20200FC
:1032200007FF0000182300206723002034C202009B
:1032300008FF0000F02200204823002048C20200BE
:1032400009FF0000102300206623002057C202005F
:103250000AFF000038230020902300206CC20200E7
:103260000BFF0000D02200204023002076C2020085
:103270000CFF0000D82200204123002089C2020058
:103280000DFF0000E02200204223002095C2020032
:103290000EFF00009DC20200F0B510251627114E4A
:1032A0008BB006AC00900191029269462A00300072
:1032B00003936F4408F02AF82A00002120003D8083
:1032C000FFF7A4FD084B21001B88A7602380012382
:1032D000A3700023A380054BE6601888FFF730FE3B
:1032E0000BB0F0BD80230020302300204C200020B4
:1032F000F0B587B06B4601270C4D02AC2870102248
:10330000002120009E1DDF80FFF780FD084B21007B
:103310001B88A77023800023A380064BA660188813
:10332000E560FFF70DFE07B0F0BDC046402300206A
:10333000D02200204C20002070B503880500112BFE
:1033400017D002D8102B09D070BD502B1BD0532B97
:10335000FAD16249042003F005FCF5E78288604B4E
:10336000604904201A8003F0FDFB03225E4B1A60C3
:10337000EAE701225A4B52425C4904201A8003F0CA
:10338000F1FB0422F2E75A49042003F0EBFB594A0F
:10339000EB881288AC1D9A4211D1227B5649042039
:1033A00003F0FCFBFF20FFF7A3FF544803887F2BAB
:1033B00001D97F23038001F02FFF0522D6E7504A71
:1033C00012889A4211D1227B4E49042003F0E6FB79
:1033D000FF20FFF78DFF4C4803887F2B01D97F2307
:1033E000038001F019FF0622C0E7484A12889A427A
:1033F00009D1227B4649042003F0D0FB454801F067
:103400000BFF0722B2E7444A1188994205D1227B7B
:103410004249042003F0C2FB96E792889A4202D107
:10342000227B3F49F5E73F4A12889A4206D1227B28
:103430003D49042003F0B2FB0B2297E73B4A128878
:103440009A4209D1227B3A49042003F0A7FB39486C
:1034500001F0E2FE082289E7374A12889A4202D137
:10346000227B3649D5E7364A12889A4202D1227B1E
:103470003449CEE7344A12889A4206D1227B334936
:10348000042003F08BFB0A2270E7314A12889A422B
:1034900006D1227B2F49042003F080FB092265E737
:1034A0002D4A12889A4211D1227B2C49042003F024
:1034B00075FB237B022B00D046E7294B1A780123AA
:1034C0001A4200D140E7274A13603DE7264A128896
:1034D0009A4200D038E7227B24499AE76EC1020065
:1034E0004C200020B3BC020074200020DEBC02008F
:1034F0000CBD02000023002039BD02005C23002027
:10350000282300208ABD02007E23002020230020E3
:10351000D6BD020077230020302300201FBE02000A
:1035200076BE020008230020CCBE0200E822002064
:1035300029BF020044230020F82200207CBF0200A3
:1035400018230020D2BF02001023002028C0020050
:10355000382300207FC00200D0220020CBC0020010
:1035600041230020FC200020D822002020C102009E
:1035700010B504000822024907F0C8FE200010BD63
:103580005E2300207FB51025094E04002A0031007B
:10359000684607F0BBFE7F22F37B694613406A460C
:1035A0002000D3732A0007F0B1FE200004B070BDE4
:1035B0004C2300207FB51025094E04002A0031005D
:1035C000684607F0A3FE7F22F37B694613406A46F4
:1035D0002000D3732A0007F099FE200004B070BDCC
:1035E000672300207FB51025094E04002A00310012
:1035F000684607F08BFE7F22F37B694613406A46DC
:103600002000D3732A0007F081FE200004B070BDB3
:1036100080230020014B18887047C0465C2300209F
:10362000014B18887047C0467E230020014B186864
:103630007047C04690230020014B18787047C04661
:1036400041230020014B18787047C04666230020B4
:1036500007B50822009001910248694607F056FE1E
:1036600007BDC0465E230020014B18607047C0466E
:1036700048230020014B18807047C0464223002099
:10368000014B18807047C0465C23002007B5062216
:10369000009001910248694607F038FE07BDC04618
:1036A00077230020014B18707047C0466623002026
:1036B0001FB5029203935A006B46520E009001917F
:1036C0000348DA736946102207F020FE05B000BDFA
:1036D0004C2300201FB5029203935A006B46520EF2
:1036E000009001910348DA736946102207F00EFE3C
:1036F00005B000BD672300201FB5029203935A0056
:103700006B46520E009001910348DA73694610220D
:1037100007F0FCFD05B000BD80230020F0B5038854
:1037200085B004001D2B61D10622037C1340934217
:103730005CD1027A2E49042003F030FAA17BA37AEF
:103740000391617B627A0291217B04200191E17AED
:1037500027000091274903F0E9FA0F222649A256D3
:10376000042003F01BFA227C24495207920F042004
:1037700003F014FA2249042003F0F4F9214E237CCB
:103780001137DB083A003100042003F01BFB1E4D0B
:103790001E223900280007F0B9FDBA797B791202A0
:1037A0001A431A49042003F0F9F9BA7E7B7E12020B
:1037B0001A431749042003F0F1F93A7FFB7E120205
:1037C0001A431449042003F0E9F91349042003F0D3
:1037D000C9F9220010231A323100042003F0F2FA52
:1037E000280001F0E3FD02220C4B1A6005B0F0BD89
:1037F000C3C20200E5C2020006C302001CC30200ED
:1038000036C3020049C302009B23002057C30200B5
:1038100073C302008AC30200A1C3020088200020F3
:1038200078DF70477ADF70477CDF704770470000B1
:10383000004870479C24002010B50449044807F054
:10384000D9F8002801D003F073FE10BD2D38020016
:103850008C24002070B59AB00BAC3C2200212000D3
:10386000FFF7D4FA022323700433E370104B0126D0
:1038700063618023626A03ADDB00A67026820021AB
:10388000138028002022FFF7C1FA962300215B0055
:103890002B61EE706961074B00912A00200006F051
:1038A00003FD002801D003F043FE1AB070BDC046EE
:1038B0004E200020793A0200112330B585B001ADC9
:1038C0002B701A4B1A4C1B681A4A1B499BB22000DA
:1038D00007F058FD200007F077FD210082B2280094
:1038E000FFF7A2FF002801D003F022FE0020FFF71F
:1038F00097FF002801D003F01BFE02AC0822002134
:103900002000FFF783FA20232380183363800023ED
:10391000A3809133FF332000E380FFF783FF00286B
:1039200001D003F005FE05B030BDC046A400001074
:103930009C240020BEC30200B4C302007FB5184916
:1039400004220631684607F0E1FC0023D022154925
:10395000684607F073F9002801D003F0E9FD01AAD9
:103960000121002007F0C4F9002801D003F0E0FD98
:1039700001A807F0D5F9002801D003F0D9FD0A48C5
:1039800007F092F9002801D003F0D2FD074807F0B4
:1039900095F9002801D003F0CBFD07B000BDC0466B
:1039A000B4C30200BC230020B33A0200E13A020093
:1039B00076DF7047A8DF704767DF70471FB5038861
:1039C0000400112B27D004D8022B2ED0102B13D09B
:1039D0001FBD512B2FD0552B25D03A2BF8D1214983
:1039E000042003F0BFF8A0881321FFF7E1FF0028AF
:1039F000EED003F09DFDEBE703201B4903F0B2F886
:103A0000072006F09BF8002801D003F091FDA28862
:103A1000164B1A80DCE7027A1549032003F0BEF842
:103A200001225242F4E71349DAE7104B00211888CB
:103A3000FFF7C2FFDBE78379002BC9D0827B043A12
:103A4000022AC5D8022B0AD16A461370C1236A46DE
:103A50005B009380A0886946FFF7ACFFC7E70123AE
:103A6000F2E7C04653C4020019C40200AA24002091
:103A70002FC4020075C4020010B500280CD0032822
:103A800009D1074903F06EF8022006F057F8002824
:103A900001D003F04DFD10BD02F070FCFBE7C04605
:103AA000FCC30200038810B5112B01D006F0CEFD37
:103AB00010BD10B5040006F025FF200006F0CCFE76
:103AC000200006F005F92000FFF778FF2000FFF73F
:103AD00033FC2000FFF7E6FF2000FFF71FFE10BDBC
:103AE00010B5040004F04AFF200006F0E5FD10BD0B
:103AF00010B50E2802D00F2808D010BD07490320AA
:103B000003F030F80120FFF7F3FBF6E70449032048
:103B100003F028F80422034B1A60EEE7C7C3020043
:103B2000E6C30200FC200020C02310B59B0298428F
:103B300057D004D880239B02984210D010BDA023F8
:103B4000DB02984255D0C023DB029842F6D103290C
:103B5000F4D101F0E7FF01F04FF9324A06E0012904
:103B600007D101F065FB01F047F92F4A2F4B1A608E
:103B7000E4E7042905D101F05BFB01F03DF92C4A93
:103B8000F4E7072905D101F053FB01F035F9294A83
:103B9000ECE7062905D101F04BFB01F02DF9264A8F
:103BA000E4E7082905D101F043FB01F025F9234A98
:103BB000DCE7092905D101F03BFB01F01DF9204AA2
:103BC000D4E70A2905D101F033FB01F015F91D4AAC
:103BD000CCE70B29B2D101F02BFB01F00DF91A4A09
:103BE000C4E70229AAD101F0EDFB01F005F9174A5B
:103BF000BCE7052905D102F019FA01F0FDF8144AD5
:103C0000B4E70C2905D102F011FA01F0F5F8114AD8
:103C1000ACE7092900D091E702F008FA01F0ECF8CE
:103C20000D4AA3E703000600010002006020002007
:103C30000400020007000200060002000800020063
:103C4000090002000A0002000B000200020003004B
:103C5000050005000C0005000900050011DF704794
:103C600013DF70470368002B08D007490A004B7226
:103C7000190A9172190C1B0ED17213730279034B3E
:103C80001A60082303717047522000206020002032
:103C90000368002B08D007490A004B72190A917279
:103CA000190C1B0ED17213730279034B1A6008238F
:103CB0000371704752200020602000200368002B11
:103CC00008D007490A004B72190A9172190C1B0E91
:103CD000D17213730279034B1A6008230371704782
:103CE000522000206020002010B50320024902F07D
:103CF00039FF002010BDC046B0C7020010B5032038
:103D0000034902F02FFF0222024B00201A6010BD6F
:103D100072C702007420002010B50449032002F08D
:103D200021FFFE20FFF7E4FA002010BDD4C80200F6
:103D300010B50949032002F015FF0848084B03603D
:103D400004238360C0239B00838002F063F9072271
:103D5000044B00201A6010BDBDC90200AC24002035
:103D600089250020E820002073B51749032002F0C0
:103D7000F9FE5A235B22154C52422370E370144B18
:103D800062701B68A2701B88002523711B0A637177
:103D90000323104EE371A57168463460FFF7E8FB1A
:103DA000200008226946083007F0B0FA0A48336854
:103DB000856003601023838002F02CF90722074BF3
:103DC00028001A6076BDC04614C90200B82400203D
:103DD0006C25002070250020AC240020E820002065
:103DE00010B50549032002F0BDFE01F09BFE0088DE
:103DF000FFF740FC002010BD41CA020010B5817AD7
:103E0000437A09021943C37A094A1B041943037B05
:103E100008481B060B438021136005230902137118
:103E200003F0ACFE044A002013680133136010BD98
:103E3000442500204C2500203037002010B50E49C5
:103E4000032002F08FFE0D4803F0E4FE01220C4B2C
:103E50000C4904201A6002F085FE0B4C102322004E
:103E60000A49042002F0AEFF200001F0D5F90C222F
:103E7000074B00201A6010BDBECB02001C2500209D
:103E80008820002003CC02007925002049C30200CD
:103E900074200020F0B5554987B0032002F062FE7F
:103EA00001F090FA04008279437912021A435049D2
:103EB000042002F073FEA27E637E12021A434D4973
:103EC000042002F06BFE227FE37E12021A434A496D
:103ED000042002F063FE4949042002F043FE220060
:103EE000102309324649042002F06CFF0025072701
:103EF000444B1B681B88AB4237D801F0BFFC00283D
:103F000000D16EE002A8FFF73DFBFFF783FB012124
:103F1000C308DBB2019307230C0003409C40FF233E
:103F200000229C46013C384FE4B2531CDB0065463E
:103F3000834200DD250002ABBE5C9B5C0132B343D3
:103F40001D406B426B415B421940019BD2B29342D0
:103F5000EBD2002906D02D49032002F003FE0322F4
:103F60002B4B1A60002007B0F0BD6379294A9C46AC
:103F7000062366466B43985CD318A1795A780902E8
:103F8000120231430243914228D1627EA17E9446BF
:103F90006646DA7898780902120231430243914268
:103FA0001CD11979227F5B79E07E12021B02024349
:103FB0000B439A4212D12800012338408340124912
:103FC000EA08885C03438B54134AAB001168134A18
:103FD000032099502A00124902F0E0FD0135ADB2EC
:103FE00086E702A8FFF7E6FA8FE7C046E4C50200BD
:103FF00022C602004DC6020073C6020099C6020026
:1040000049C302006C25002079250020E8C6020083
:104010006020002089250020303700208C280020D7
:10402000BBC6020010B50849032002F09BFDFFF754
:1040300009FB064B1870180001F014FC0422044B15
:1040400000201A6010BDC0466DCC0200782500200B
:10405000A0200020F0B5002585B03449032002F0EF
:1040600081FD334C3349236803205A8802F096FDC2
:10407000236831499A88032002F090FD23682F4974
:10408000DA88032002F08AFD23682D491A8903206B
:1040900002F084FDFFF7C4FA2A002168294E0B883C
:1040A00003900293029893B2019383420BD3002DA5
:1040B0002BD00320244902F055FDFA20FFF718F910
:1040C000002005B0F0BD062353439C5DF318A446C1
:1040D00060465C788F8824020443A74212D1DC78C2
:1040E0009878CF8824020443A7420BD11C795B79CE
:1040F0000F891B0223439F4204D1019B03989842DE
:1041000000D001250132D2B2CCE706224B880D48FF
:1041100053430431C01807F0F9F8FF20FFF7E8F81F
:104120000A49032002F01EFDCAE7C04616CD020070
:104130006C25002052CD02007CCD0200A7CD0200EC
:10414000CDCD020089250020F3CD02002CCE020047
:1041500010B51149032002F005FDFFF761FA0F4B7E
:104160008000C058FFF780FAFFF75AFA0622504342
:104170000B4BC15C1B185A78987812020A43000452
:104180000243D8785979000610431A79090211437D
:10419000FFF77CFA002010BD51CE02008C280020D1
:1041A0008925002010B50749032002F0DBFCFFF74A
:1041B0003DFA054B020018600449032002F0EEFCB2
:1041C000002010BD90CE020030370020CFCE02007C
:1041D00010B50D49032002F0C5FC01F029F80222B8
:1041E00000240A4B18600A4B0A481A600A4B846084
:1041F0001C600A4B03601023838001F00BFF032235
:10420000074B20001A6010BD37C702006C25002044
:1042100074200020AC240020A0200020B82400201E
:10422000E8200020F0B5BE499DB0032002F09AFCC2
:1042300000F0FEFF0078012823D1BA49023002F0D5
:1042400091FCC02200219200B748FEF7DFFD00215B
:10425000B64C0822206801800A30FEF7D7FD22689C
:104260001300988952890004198A1043DA890904D5
:104270001143FFF7EDF90B22AD4B1A6000201DB082
:10428000F0BD022804D1AB49013002F06BFCF2E72B
:1042900003281BD1A84902F065FC02F0E1FD0028CB
:1042A000FBD10123D820A54A5B42D367A44A400230
:1042B000D367FFF7D5FCFFF7D1FCBFF34F8FA14ABF
:1042C000A14BDA60BFF34F8FC046FDE70428D5D17C
:1042D000FFF7A6F90700FFF79DF93A0000909B4908
:1042E000032002F05BFC009BFCB206259F4211D329
:1042F000FB20CEE028002B00661C734360432A009D
:104300000818C91807F002F8914BB200D258A4005F
:10431000E250F4B2009B8449581E8442EADB002339
:1043200065438B4A4B55A4004D19A3506B70AB707D
:10433000EB702B716B717D4B80B21B681880FFF79F
:104340009FF910A8FFF736F9109B14A80493119B4E
:104350000593129B0293139B0A93FFF713F9149B87
:1043600018A80693159B0793169B0D93179B0E9306
:10437000FFF738F9189B0893199B09931A9B0B9325
:104380001B9B0C9301233F2F00D985E01E00BE40EC
:10439000013EF2179446FF18BB406546049F5C42FD
:1043A00027400599E3177A08049F1940C80737404A
:1043B00002433800059F0F932F404B083900121815
:1043C0004B4102990492C9070B43029A05930A9B39
:1043D0005208DB071A43069F0A9B274007995B0890
:1043E000009201937A08E317069F1940C8073740E7
:1043F00002433800079F4B082F40390012184B41E9
:104400000D990692C9070B4307930D9A0E9B52080C
:10441000DB071A430E9B02925B080393089B0F9DD8
:104420001C406208089C099B3440200064461D40E3
:10443000E9076B08099D0A432C40210012184B41E3
:104440000B990892C9070B4309930C9B0B9ADB0746
:1044500054081C430C9B5D08029E039F16961797F9
:104460000799029A0698179BFFF722F9009E019F71
:10447000129613970599009A0498139BFFF72AF94F
:104480001A941B950898099922001B9BFFF734F991
:10449000FF20FEF72DFFF1E63F221E003A40964036
:1044A000013293400A9C5B42DA1714400F92029942
:1044B000029A013E19403240E5074808610814009D
:1044C0000A9AF7173A40284315000D9A00196941D6
:1044D0001A409446009001910F9A0E99114062463D
:1044E00054080D9AC8073240044310000E9A4D0834
:1044F0003A40110024184D410B9A0F9913400C9A21
:1045000058080B9B1140029403953340CC0720437D
:104510001C000C9B49083B401D0024184D419BE7A3
:10452000E7C702002DC80200892500206C25002065
:10453000E820002058C802008AC8020004E100E018
:1045400008E100E00400FA0500ED00E0ABC802005D
:104550008C280020002213B5224B234903201A6027
:1045600002F000FB2149032002F0FCFA01F07AFF7F
:104570006B46DC1D200001F089FF01F0A7FFFFF76B
:10458000DDF92378002B03D01949032002F0EAFA61
:10459000184A0021184803F0D9FA184A002118488F
:1045A00003F0D4FA174A0021174803F0CFFAC022CB
:1045B000002192001548FEF729FC8022002192007C
:1045C0001348FEF723FC1820FFF76CF800200122A7
:1045D000104B1860104B1860104B1860104B1A608D
:1045E00016BDC0463037002014BC0200B7CC020014
:1045F000FCCC0200653C0200DCC50200913C0200DC
:10460000D8C50200BD3C0200E0C50200892500209B
:104610008C28002074200020CC200020FC200020CA
:104620006020002070B52F49032002F09BFA2E4C29
:10463000102322002D49042002F0C4FB6278237865
:1046400012021A43A3782A4E1B041A43E3783460FB
:104650001B061343274A934241D1C023E579A2792F
:104660002D029B0015439D4239D1627923791202B4
:104670001A432149032002F091FA326853791179E3
:104680001B020B431D4909680B8050791379000206
:104690001843FEF7F5FF33685A7A187A120202437C
:1046A000987A197B00040243D87A000610435A7B9B
:1046B00012020A43997B09040A43D97B0906114374
:1046C000FEF7C6FF0E480F4B85800360042383600E
:1046D00001F0A0FC03220C4B00201A6070BD0222E6
:1046E0000A4BF9E74FC90200B824002049C3020071
:1046F000702500205AA5A55A90C902006C250020FB
:10470000AC24002089250020E82000206020002023
:104710001FB501F0B3F8002846D06846FEF732FF17
:104720006B4600201B7883423CD16B465B7883420A
:1047300038D16B469B78834234D16B46DB78834219
:1047400030D16B461B7983422CD16B465B79834217
:1047500028D16B469B79834224D16B46DB79834217
:1047600020D16B461B7A83421CD16B465B7A834215
:1047700018D16B469B7A834214D16B46DB7A834215
:1047800010D16B461B7B83420CD16B465B7B834213
:1047900008D16B469B7B834204D16B46D87B434256
:1047A0005841C0B205B000BD6846FEF703FFB7E749
:1047B000F0B5554985B00600032002F0D3F9FFF7A4
:1047C000A7FF002800D18DE05049032002F0CAF96C
:1047D00003224F4B1A6002A8FEF7CAFE02AB5C88A8
:1047E000DF8801F04BF8002800D17EE0002C00D1DA
:1047F00081E002AB1D8800F08BFC464B464F002841
:1048000000D07DE03A6818680532411DA41A6D1881
:10481000A4B21960ADB2282C00D86FE03A60272D01
:1048200001D928251860FA27BF003B006B43DA172F
:10483000D1035A0C1143FA22D803002352008018E6
:104840005941FA2267439200002306F035FCFA171B
:104850007B0CD103FA221943002301905200F80384
:1048600080185941FA220023920006F025FC070027
:104870002B00019A2949042002F0B6F923003A00DE
:104880002749042002F0B0F9B17A737A090219437A
:10489000F37A244A1B041943337B23481B060B433A
:1048A000136003230199137103F068F9B17A737AE5
:1048B00009021943F37A1D4A1B041943337B1C4830
:1048C0001B060B43136004233900137103F056F9E0
:1048D00000231900174A99540133102BFBD10020F3
:1048E00005B0F0BD144B186075E7002F03D002AB84
:1048F0009D883C007FE73C2419257CE728248EE72F
:1049000000221A603A608EE7C0CA020007CB02009C
:10491000602000208C2A00207425002046CB020055
:1049200081CB0200142500201C250020DC2400205F
:10493000E42400207925002088200020F0B5474994
:1049400085B00400032002F00DF9FFF7E1FE002816
:1049500000D177E04249032002F004F9414803F016
:1049600059F9414803F056F902A8FEF701FE02ABDF
:104970005D88DE8800F082FF002866D0002D00D11F
:1049800069E002AB1F88FA26B60033007B43DA17D2
:10499000D1035A0C1143FA22D80300235200801885
:1049A0005941FA226E439200002306F085FBF2176C
:1049B000730CD103FA221943002301905200F00333
:1049C00080185941FA220023920006F075FB060078
:1049D0003B00019A2549042002F006F92B00320021
:1049E0002349042002F000F9A17A637A09021943ED
:1049F000E37A204A1B041943237B1A481B060B4306
:104A0000136003230199137103F0B8F8A17A637A54
:104A100009021943E37A184A1B041943237B1248FD
:104A20001B060B43136004233100137103F0A6F837
:104A300000231900114A99540133102BFBD1002097
:104A400005B0F0BD0E4B186088E7002E03D002AB16
:104A50009F88350097E73C25192794E71DCC020075
:104A600007CB02001C250020E424002046CB0200D6
:104A700081CB02000C250020D424002079250020C1
:104A80008820002010B52A490400032002F06AF8AB
:104A9000FFF73EFE002847D02649032002F062F8C7
:104AA000A17A637A09021943E37A234A1B04194362
:104AB000237B22481B060B43C821136003230903F1
:104AC000137103F05BF8A17A637A09021943E37A60
:104AD0001B4A1B041943237B1A481B060B43F02176
:104AE000136004234903137103F048F8A17A637A31
:104AF00009021943E37A144A1B041943237B134820
:104B00001B060B438021136005230902137103F078
:104B100035F800231A000E495A540133102BFBD1EB
:104B20000C4B00201A6010BD0B4B1860B8E7C04654
:104B3000B0C7020007CB0200042500201C2500207E
:104B4000CC240020E42400203C2500204C2500201B
:104B500079250020E820002088200020F7B53F4D6F
:104B60000320290001F0FEFF3D49032001F0FAFF78
:104B70002900032001F0F6FFFEF75AFE3949020032
:104B8000032002F00BF8962237495200032002F06E
:104B900005F8DC223549D200032001F0FFFFA022F6
:104BA0003349032001F0FAFF324B33491B680320DD
:104BB0001A8801F0F3FF6846FEF7DAFC6B465C8862
:104BC000DF88002C46D01E8832002C49032001F0DB
:104BD000E5FF22002A49032001F0E0FF002F02D068
:104BE0006B463C009E8832002649032001F0D6FF28
:104BF00022002549032001F0D1FF0522234903208B
:104C000001F0CCFF05222249032001F0C7FF214A11
:104C10002149032001F0C2FF204A2149032001F06D
:104C2000BDFFF8221F499200032001F0B7FF1E4A82
:104C30001E49032001F0B2FF1D4A1E49032001F066
:104C4000ADFF2900032001F08DFF2900032001F0B2
:104C500089FFF7BD3C241926B6E7C046FCCE02000A
:104C600044CF02008DCF0200A9CF0200E5CF0200A1
:104C70001AD002006C2500204DD002006CD002003A
:104C800099D00200C8D00200F5D0020024D1020061
:104C90006AD10200C9260000B2D10200BAE80000C1
:104CA000E2D102000DD20200C10700003BD2020097
:104CB0004517000066D2020010B50320034901F039
:104CC00051FFFFF74BFF002010BDC04681CA020014
:104CD00010B50749032001F045FF04201223054ABF
:104CE000054902F06FF8FFF739FF002010BDC046FC
:104CF000FFC902008925002049C30200F0B53A4CE3
:104D0000010AA170010CA279E170010E2171617993
:104D100012020A43E179030009040A43217A85B0AB
:104D2000090611430F000A00DC37257860700397ED
:104D30000398824207D100952C4A2D49032001F0A7
:104D400081FF01253DE05078561A844667469078E9
:104D500000023843D7783F040743107900063843F0
:104D600083423FD11078A8423CD18020A17A627A58
:104D700009021143E27A400212041143227B120617
:104D80000A431900FEF7D0FEA279637912021A4392
:104D9000E37920001B041A43237A1B0613439B1953
:104DA0009A79597912021143DA791B7A12040A436B
:104DB0001B0613439847051E06D00E49042001F038
:104DC000D1FE280005B0F0BDA279637912021A4322
:104DD000E3791B041A43237A1B0613439B195B7A5E
:104DE0002370EEE70A32A3E752200020B0C402008D
:104DF000BFC4020097C40200044A13005072020AA2
:104E00009A72020C000EDA7218737047522000205A
:104E100010B50320024901F0A5FE002010BDC046D8
:104E200037D4020010B50320024901F09BFE002098
:104E300010BDC04679D4020010B50320024901F02C
:104E400091FE002010BDC04695D6020010B503208B
:104E5000024901F087FE002010BDC04672D3020057
:104E600010B50320024901F07DFE002010BDC046B0
:104E7000AAD3020010B50320024901F073FE0020FE
:104E800010BDC04649D3020010B50849032001F007
:104E900069FE0749074B0A004B72190A9172190CF7
:104EA0001B0E0020D172137310BDC04620D3020028
:104EB000642000203437002010B51249032001F08F
:104EC00051FE114A114C937A517A1B020B43D17A4D
:104ED000201D09040B43117B06220906194306F025
:104EE00015FAA2880A49042001F058FEE28809490F
:104EF000042001F053FE22890749042001F04EFEF0
:104F0000002010BD30D5020064200020343700207E
:104F10005ED5020085D50200A7D5020010B50C4968
:104F2000032001F01FFE0B4904208A7A4B7A1202FB
:104F30001A43CB7A1B041A430B7B07491B06134306
:104F40001A88064B5A8001F029FE002010BDC04689
:104F5000C9D5020064200020FAD5020034370020B1
:104F600010B50C49032001F0FDFD0B4904208A7A9D
:104F70004B7A12021A43CB7A1B041A430B7B074964
:104F80001B0613431A88064B1A8001F007FE002007
:104F900010BDC046D6D30200642000200CD402000D
:104FA00034370020F0B53F498DB0032001F0DAFD21
:104FB0003D4A04A8937A517A1B020B43D17A090423
:104FC0000B43117B10220906194306F09FF900F0EC
:104FD00055FC00285FD008A8FEF7D4FAFEF71AFBAC
:104FE0000122C308DBB2019307231100034099405B
:104FF0000B00013BDBB202930023FF271C0008AE2D
:105000000392591CC9003D00814200DD029D04A9A4
:10501000C95C8C466246F15C9143294200D0039CF6
:105020000133019ADBB29A42EBD201252A001F4BD1
:1050300062401A70002C09D01D49032001F092FD36
:10504000FEF7FAFA284201D01A4B1D60164B1B7866
:10505000042B1DD104ABDD7B7F231D4004ABDD732E
:1050600000F00CFC002804D080235B421D4304ABFD
:10507000DD7304980599069A079BFEF70DF9002C3D
:1050800006D000F0FBFB002809D00420FEF730F921
:1050900000200DB0F0BD08A8FEF78CFA9EE70320B3
:1050A000F4E7C04620D6020064200020902A0020A9
:1050B0004CD60200FC20002010B50320034901F06B
:1050C00051FD01F099F9002010BDC046B5D4020091
:1050D00010B50C49032001F045FDFEF7EDFBFEF78E
:1050E000B9FBFEF7A9FB01F090F901F097F9032055
:1050F000054901F037FD01F090F90122034B002032
:105100001A6010BDE8D4020014D5020074200020FB
:10511000014B18787047C046902A0020F0B53A4CF1
:10512000010AA170010CA279E170010E217161796F
:1051300012020A43E179030009040A43217A85B087
:10514000090611430F000A008C3725786070039719
:105150000398824207D100952C4A2D49032001F083
:1051600071FD01253DE05078561A844667469078D7
:1051700000023843D7783F040743107900063843CC
:1051800083423FD11078A8423CD18020A17A627A34
:1051900009021143E27A800212041143227B1206B3
:1051A0000A431900FEF7C0FCA279637912021A4380
:1051B000E37920001B041A43237A1B0613439B192F
:1051C0009A79597912021143DA791B7A12040A4347
:1051D0001B0613439847051E06D00E49042001F014
:1051E000C1FC280005B0F0BDA279637912021A4310
:1051F000E3791B041A43237A1B0613439B195B7A3A
:105200002370EEE70A32A3E7642000208DD202006B
:10521000BFC4020097C40200044A13005072020A7D
:105220009A72020C000EDA72187370476420002024
:10523000054A937A507A1B020343D07A0004034351
:10524000107B0006184370476420002010B503202F
:10525000024901F087FC002010BDC046FCD60200C8
:1052600010B50549032001F07DFC0320034901F03E
:1052700079FC002010BDC046B4D70200F6D702006A
:1052800010B50320034901F06DFC01F05DF9002029
:1052900010BDC04676D7020010B50320034901F0C7
:1052A00061FC01F041F9002010BDC04637D7020073
:1052B000F0B53A4C010AA170010CA279E170010E1F
:1052C0002171617912020A43E179030009040A435A
:1052D000217A85B0090611430F000A002837257886
:1052E000607003970398824207D100952C4A2D499C
:1052F000032001F0A7FC01253DE05078561A8446B2
:105300006746907800023843D7783F040743107906
:105310000006384383423FD11078A8423CD1C020D8
:10532000A17A627A09021143E27A800212041143DF
:10533000227B12060A431900FEF7F6FBA279637975
:1053400012021A43E37920001B041A43237A1B0636
:1053500013439B199A79597912021143DA791B7A0E
:1053600012040A431B0613439847051E06D00E4934
:10537000042001F0F7FB280005B0F0BDA2796379A5
:1053800012021A43E3791B041A43237A1B061343C0
:105390009B195B7A2370EEE70A32A3E7782000209E
:1053A000C6D60200BFC4020097C40200044A13001C
:1053B0005072020A9A72020C000EDA721873704769
:1053C00078200020054A937A507A1B020343D07A52
:1053D00000040343107B0006184370477820002028
:1053E0000368002B08D007490A004B72190A917212
:1053F000190C1B0ED17213730279034B1A60072329
:105400000371704790200020A020002010B50320D9
:10541000034901F0A7FB0020024B187010BDC046E5
:1054200061D90200922A002010B50320024901F040
:1054300099FB002010BDC046E8D802000122064BAF
:1054400010B5064906481A7002F0C4FC002801D0C5
:1054500002F06EF810BDC046FA2A0020F4DA02000D
:10546000A420002010B5041E05D002000849042025
:1054700001F094FB10BD0749042001F073FB064BBB
:1054800006491A78042001F089FB054B1C70F1E7EE
:1054900086DA0200B9DA0200BC2A0020D8DA02005B
:1054A000FA2A0020094B0A491A68FA239B00C046D1
:1054B000C046C046C046C046C046C046C0468A42F6
:1054C00000D0C046013BF2D17047C04628210020E1
:1054D0000024F400F0B5032087B0214901F042FB1D
:1054E0002049214C8A7A4B7A12021A43CB7A1B0448
:1054F0001A430B7B17211B0613431C4A11701B78A0
:1055000002A953700B00220061CA61C3184D1268D2
:1055100028001A600023022202F08CFC2A22154B7C
:105520001A70FFF78BFFFFF7BDFF134B1E78002E9D
:1055300011D10122114B12491B78103413434B70C7
:105540006B46694681CC81C33300280002F072FCAF
:10555000300007B0F0BD0B49032001F003FBE2E788
:10556000A5D902009020002048D80200F82A002087
:10557000A4200020912A0020FA2A0020BC2A002022
:105580008E200020EAD90200F0B53A498FB00320FE
:1055900001F0E8FA002102AC374B1022200019700C
:1055A000FDF734FC05230293013B6360CC235B04CD
:1055B000A3600323314D23730822314B21002800BF
:1055C00002F0ECFB002801D001F0B2FF0D232D4AC0
:1055D0001370FFF733FFFFF765FF2B4B1B78002B92
:1055E00038D12A4A12784A2A3ED12100284A183254
:1055F000C1CAC1C1C1CAC1C1C1CAC1C1C1CAC1C177
:1056000006222100280002F015FC2A231D4A1370EF
:10561000FFF714FFFFF746FF1B4B1B78002B1ED133
:105620001A4A6C46117801221A48114341701848F1
:1056300069464830C0C8C0C4280002F0FBFB164AC7
:105640000021164802F082FA01220020144B1A6051
:105650000FB0F0BD1349032001F084FABBE71149F4
:10566000032001F07FFAD5E70F49032001F07AFA11
:10567000E5E7C046FDD90200922A0020A4200020C0
:10568000D42A0020912A0020FA2A0020BC2A0020D7
:1056900048D802008C200020E1530200E4D8020028
:1056A000A0200020EAD902003DDA020070B52649A8
:1056B0000500032001F056FA0C23244E3370FFF747
:1056C000BDFEFFF7EFFE224C2378002B32D1214B99
:1056D0001B785B072CD516233370FFF7AFFEFFF75F
:1056E000E1FE2378002B2AD11B4C200002F092FA15
:1056F000A97A6B7A09021943EB7A184A1B041943F9
:105700002B7B20001B060B43A02113600323C9023F
:10571000137102F033FAFDF78FFF114C830705D5A3
:105720002378002B02D10520FDF7E2FD0123237031
:10573000002070BD0B49032001F014FAC1E70949AC
:10574000032001F00FFACAE725D90200912A0020B0
:10575000FA2A0020BC2A00209C2A0020942A00203B
:10576000922A0020EAD90200F0B53A4C010AA17051
:10577000010CA279E170010E2171617912020A43D4
:10578000E179030009040A43217A85B0090611432F
:105790000F000A0032372578607003970398824221
:1057A00007D100952C4A2D49032001F04BFA012521
:1057B0003DE05078561A8446674690780002384398
:1057C000D7783F04074310790006384383423FD11E
:1057D0001078A8423CD18020A17A627A0902114354
:1057E000E27AC00212041143227B12060A43190016
:1057F000FEF79AF9A279637912021A43E37920003D
:105800001B041A43237A1B0613439B199A7959796F
:1058100012021143DA791B7A12040A431B0613435E
:105820009847051E06D00E49042001F09BF9280078
:1058300005B0F0BDA279637912021A43E3791B0423
:105840001A43237A1B0613439B195B7A2370EEE7F6
:105850000A32A3E790200020A0D80200BFC40200B3
:1058600097C40200044A13005072020A9A72020C92
:10587000000EDA721873704790200020014B1878E0
:105880007047C046922A00200368002B08D00749C1
:105890000A004B72190A9172190C1B0ED172137304
:1058A0000279034B1A60062303717047BC20002065
:1058B000CC20002010B50849032001F053F9074916
:1058C000074B0A004B72190A9172190C1B0E00202B
:1058D000D172137310BDC046A1DB0200BC200020B2
:1058E000FC2A002010B504000E49032001F03AF90B
:1058F000A17A637A09021943E37A0B4A1B0419431C
:10590000237B0A481B060B43F02113600223490343
:10591000137102F033F9172003F09CFB03F048FAEF
:10592000002010BD09DC0200082B0020102B0020F5
:1059300010B504000D49032001F014F9A17A637A2F
:1059400009021943E37A0A4A1B041943237B0948D5
:105950001B060B43F021136002234903137102F06D
:105960000DF903F025FA002010BDC04670DB0200DF
:10597000002B0020102B002007B51149032001F057
:10598000F1F800210F4A104802F0E0F8032301A8C3
:105990000E49037003F0DEF9002801D001F0C8FDC4
:1059A0000B4803F0F5F901210A4803F007FA002833
:1059B00001D001F0BDFD0122074B00201A600EBD91
:1059C000D5DB0200895802006CDB0200DD590200C1
:1059D000D0200020FC2A0020CC20002070B50478C4
:1059E0000500002C10D12B899C420ED3172003F008
:1059F00039FB0121094803F0E1F9002801D001F049
:105A000097FD0322064B1A6070BD6A6863009A5EB8
:105A10000449032001F0C2F80134E4E7FC2A002025
:105A2000CC20002014DB0200F0B53A4C010AA17032
:105A3000010CA279E170010E2171617912020A4311
:105A4000E179030009040A43217A85B0090611436C
:105A50000F000A0028372578607003970398824268
:105A600007D100952C4A2D49032001F0EBF80125C0
:105A70003DE05078561A84466746907800023843D5
:105A8000D7783F04074310790006384383423FD15B
:105A90001078A8423CD1C020A17A627A0902114351
:105AA000E27AC00212041143227B12060A43190053
:105AB000FEF73AF8A279637912021A43E3792000DB
:105AC0001B041A43237A1B0613439B199A795979AD
:105AD00012021143DA791B7A12040A431B0613439C
:105AE0009847051E06D00E49042001F03BF8280017
:105AF00005B0F0BDA279637912021A43E3791B0461
:105B00001A43237A1B0613439B195B7A2370EEE733
:105B10000A32A3E7BC20002039DB0200BFC4020028
:105B200097C40200054A937A507A1B020343D07A45
:105B300000040343107B000618437047BC2000207C
:105B400028DF70470368002B08D007490A004B7212
:105B5000190A9172190C1B0ED17213730279034B3F
:105B60001A600E2303717047D8200020E82000201F
:105B700010B50320024900F0F5FF002010BDC0461B
:105B80005ADD020010B50320024900F0EBFF0020AF
:105B900010BDC04644DE020010B50320024900F0EB
:105BA000E1FF002010BDC04674DE020010B50320E6
:105BB000024900F0D7FF002010BDC046B7DD02004B
:105BC00010B50320024900F0CDFF002010BDC046F3
:105BD000E6DD020010B50320024900F0C3FF0020FB
:105BE00010BDC046CCDC020010B50949032000F00E
:105BF000B9FF084B00241868FFF7A2FF0C23064AE0
:105C0000064907481460137101F0B8FF200010BD69
:105C10002EDD0200642B0020342B0020CD0C000070
:105C20003C2B0020F7B5274D274A2B68126893427A
:105C300004D30922254B00201A60FEBD827A447AE3
:105C400012022243C47A013324042243047B9B00C2
:105C500024061443A288181F216893422ED90323D7
:105C600009181A4001A805F051FB0121184A194BE7
:105C700099501100053AFF3A170098580028FCD0B7
:105C80001548019E02681660DE59002EFCD00026E1
:105C90005E508026F60099590029FCD004322B680A
:105CA00002600E4A01332B6013005472220A9A726A
:105CB000220C240EDA721C730822BBE70918042296
:105CC000D0E7C0465C2B0020602B0020E82000209D
:105CD0000405000000E00140302B0020D820002007
:105CE000F0B52A4A2A4D12682B6885B0934207D333
:105CF0000522284B1A6000232B60002005B0F0BD60
:105D0000827A447A12022243C47A23492404224329
:105D1000047B012024061443204A50500191053988
:105D2000FF390F005658002EFCD01D4E3168086810
:105D30000390D0590028FCD00027019817508027E5
:105D4000FF00D0590028FCD0043131600133A28813
:105D50009B00191F2068934215D9032340181A404D
:105D600003A905F0D3FA2B680E4A01332B60130008
:105D70005472220A9A72220CDA720422240E1C73C4
:105D8000044B1A60B9E740180422E9E7602B0020B1
:105D90005C2B0020E82000200405000000E001400A
:105DA000302B0020D820002010B5837A447A1B02C3
:105DB0002343C47A154924042343047B0320240687
:105DC0001C43A28800F0EAFE114A13005472220A12
:105DD0009A72220CDA72220E1A7308220D4B1A6084
:105DE0000D4B1A680D4B1B685343A26892009B1819
:105DF0000B4A1360A1880B4A8B08890704D1002045
:105E00001360094B186010BD0133F8E714DE02007F
:105E1000D8200020E8200020682B0020642B0020E0
:105E2000302B0020602B00205C2B002010B5837AE3
:105E3000447A1B022343C47A154924042343047B78
:105E4000032024061C43A28800F0A8FEA188114A62
:105E50008B0889071AD113600F4A0020130054726F
:105E6000220A9A72220CDA72220E1A7304220B4B47
:105E70001A600B4B1A680B4B1B685343A2689200C5
:105E80009B18094A1360094B186010BD0133E2E703
:105E900089DD0200602B0020D8200020E8200020AF
:105EA000682B0020642B0020302B00205C2B00206E
:105EB00010B50D49032000F055FE80235B051A69DB
:105EC0000A490B480A605B690A49013B0B6053436E
:105ED000094A00211360094A01F038FE0122084BEB
:105EE00000201A6010BDC046FCDC0200682B0020B8
:105EF000C8DC0200642B0020302B0020455B020030
:105F0000E820002010B50320024900F02BFE0020FD
:105F100010BDC046CCDC0200F0B53A4C010AA170BD
:105F2000010CA279E170010E2171617912020A431C
:105F3000E179030009040A43217A85B00906114377
:105F40000F000A0082372578607003970398824219
:105F500007D100952C4A2D49032000F073FE01253E
:105F60003DE05078561A84466746907800023843E0
:105F7000D7783F04074310790006384383423FD166
:105F80001078A8423CD1A020A17A627A090211437C
:105F9000E27AC00212041143227B12060A4319005E
:105FA000FDF7C2FDA279637912021A43E37920005A
:105FB0001B041A43237A1B0613439B199A795979B8
:105FC00012021143DA791B7A12040A431B061343A7
:105FD0009847051E06D00E49042000F0C3FD280096
:105FE00005B0F0BDA279637912021A43E3791B046C
:105FF0001A43237A1B0613439B195B7A2370EEE73F
:106000000A32A3E7D82000203BDC0200BFC4020014
:1060100097C40200044A13005072020A9A72020CDA
:10602000000EDA7218737047D8200020054A937A60
:10603000507A1B020343D07A00040343107B00060E
:1060400018437047D82000200368002B08D0074968
:106050000A004B72190A9172190C1B0ED17213733C
:106060000279034B1A60062303717047EC2000206D
:10607000FC2000200368002B08D007490A004B725F
:10608000190A9172190C1B0ED17213730279034B0A
:106090001A60062303717047EC200020FC200020CA
:1060A0000368002B08D007490A004B72190A917245
:1060B000190C1B0ED17213730279034B1A6006235D
:1060C00003717047EC200020FC20002010B505492A
:1060D000032000F047FD0320034900F043FD0020AA
:1060E00010BDC0467FDF0200AFDF020010B5817A2D
:1060F000437A09021943C37A134A1B041943037BE9
:1061000004001B060B4380211360022309020F4881
:10611000137101F033FDA17A637A09021943E37A1E
:106120000B4A1B041943237B0A481B060B4380219F
:10613000136003234902137101F020FD182002F0BF
:1061400089FF002010BDC046CC2B0020D42B00209E
:10615000742B00207C2B002010B504002049032064
:1061600000F000FDA17A637A09021943E37A1D4A1F
:106170001B041943237B1C481B060B43802113601F
:1061800002230902137101F0F9FCA17A637A090272
:106190001943E37A154A1B041943237B14481B0651
:1061A0000B438021136003234902137101F0E6FCC5
:1061B000A17A637A09021943E37A0E4A1B04194350
:1061C000237B0D481B060B43C02113600423890267
:1061D000137101F0D3FC182002F03CFF002010BD29
:1061E0002ADF0200C42B0020D42B00206C2B0020BF
:1061F0007C2B00209C2B0020A42B002010B50749ED
:10620000032000F0AFFC064801F004FD054801F052
:1062100001FD182002F026FF002010BD55DF02000E
:10622000D42B00207C2B002010B5182002F01AFF80
:10623000002010BD10B50A49032000F093FC094A64
:106240000021094801F082FC084A0021084801F0B9
:106250007DFC084A0021084801F078FC002010BDB0
:1062600000DF020049600200FCDE020075600200EF
:10627000F4DE0200A1600200F8DE0200F0B53A4C44
:10628000010AA170010CA279E170010E21716179FE
:1062900012020A43E179030009040A43217A85B016
:1062A000090611430F000A004637257860700397EE
:1062B0000398824207D100952C4A2D49032000F013
:1062C000C1FC01253DE05078561A84466746907817
:1062D00000023843D7783F0407431079000638435B
:1062E00083423FD11078A8423CD1E020A17A627A63
:1062F00009021143E27AC00212041143227B120602
:106300000A431900FDF710FCA279637912021A43BF
:10631000E37920001B041A43237A1B0613439B19BD
:106320009A79597912021143DA791B7A12040A43D5
:106330001B0613439847051E06D00E49042000F0A3
:1063400011FC280005B0F0BDA279637912021A434E
:10635000E3791B041A43237A1B0613439B195B7AC8
:106360002370EEE70A32A3E7EC200020A3DE020050
:10637000BFC4020097C402003CDF704710B5002084
:1063800003F0DCFB002801D001F0D2F803F08EFC12
:10639000002801D001F0CCF8FFF7EEFF002801D073
:1063A00001F0C6F810BD76DF70478ADF70478BDFDB
:1063B000704710B501F0BCF810BD0000022210B506
:1063C000034B044903201A6000F0CCFB10BDC0460B
:1063D000A0200020F0DF020010B50378002B08D1C8
:1063E000044B3B211888FFF7DEFF002801D001F0A5
:1063F0009FF810BD4637002010B5032004F010F8B8
:10640000002801D001F094F810BD10B5FCF79CFDF8
:10641000002801D001F08CF810BD704710B588B08D
:1064200001AC1C2200212000FCF7F0FCA02292020B
:106430006260F02200231203A260032201932374FE
:10644000064B20006361064B2273A36104F0CCF974
:10645000002801D001F06CF808B010BDD96302002B
:10646000B3630200002310B5064A0521180001F0AD
:106470001BFB002801D001F05BF80349032000F06A
:1064800071FB10BDF42B002004E0020037B50400BE
:106490000C4A0D49032003F05FFB002801D001F0F6
:1064A00047F86B46DD1D2900002003F055FC00284D
:1064B00001D001F03DF82B78023B5A425341237042
:1064C00037BDC046F13A0200CD0C000007B50021EF
:1064D00003226846FCF79AFC6946172002F064FD27
:1064E000002801D001F024F86946182002F05CFD74
:1064F000002801D001F01CF80422094901A804F089
:1065000005FF084A01A9022002F0B6FD002801D0CB
:1065100001F00EF80121022002F014FE07BDC04672
:10652000ECDF0200BD63020010B5FFF740FF054835
:10653000FFF73BFF082302009A4301D000F0F8FF69
:1065400010BDC0460021002010B5FFF730FF10BD80
:10655000A2DF7047F0B599B007931EAB1C781FAB54
:106560001B8811AF05900691049200211C2238006F
:10657000039309AEFCF74AFC142200210CA8FCF797
:1065800045FC0AAD032200213000FCF73FFC03224A
:1065900000212800FCF73AFC012102230A00B37015
:1065A0000E331A4323000B408B4072703270620826
:1065B0000A40D200A00813430840E20880000A40C5
:1065C0002409120103430C40134364011C4330238C
:1065D0003C701C4200D07E616B461B7F0BA98B7008
:1065E0006B461B8A01220B80102318000424AB7811
:1065F0001043053293432343AB706B469B890CAA2F
:1066000093816B469B8928701381209B68700C9145
:10661000136111A9219B06985560FFF799FF0500AA
:10662000039B049A0193059B0449009303002000F7
:1066300000F03EFB280019B0F0BDC04626E0020085
:106640001FB501236A461370034B1072019168460F
:1066500006CB904705B000BD6C2C0020F8B51C237C
:106660000679424C7343E318DB7E0500944608200C
:10667000002B7AD10868431C0CD00123A12783404A
:10668000A020FF00C005C35103270B68C133FF33AF
:106690009B001F504B685A1C06D0A0200027C13316
:1066A000FF339B00C0051F5028688F69304BC750CF
:1066B000087D4B7D2F6803432E483B502B682E48A6
:1066C0004A680F681A502D481F500B7D012B21D1AD
:1066D0008B685A1C06D0A0200027C133FF339B00D3
:1066E000C0051F50C868431C0CD00123A12783405C
:1066F000A020FF00C005C3510327CB68C133FF337F
:106700009B001F50A1202B68CA688F68C0001A50D8
:1067100008301F501C2362467343E01842600A6928
:10672000E2506346002B11D000222B68097FFC3316
:106730001A622B68FC339A64C1232868104A9B00B4
:10674000C2502B68180B40B202F09CFBA02304211E
:106750002A68DB00D1501C23002001227343E31878
:10676000D87518769875DA769876F8BD6C2C002076
:10677000240500006C050000140500000C05000055
:1067800080000200F0B5037985B00193A0230022B8
:106790000168DB00CA50019B1C325A432D4B9B18E9
:1067A0005B68002B0CD0C2232B4A01689B00CA50A7
:1067B00001220368DB03DB0E9A401300274AD367EC
:1067C000A126274B01689C46264FF600CA59CB5894
:1067D000012402938B5965460393A2236442DB0094
:1067E000CB584C51CC510168A220C0008C510C50A8
:1067F000511C06D0A0210220C132FF329200C905EF
:106800005050029A013207D0A0210220029AC905F5
:10681000C132FF32920050505A1C06D0A0220221F1
:10682000C133FF339B00D2059950039B013307D03E
:10683000A0220221039BD205C133FF339B00995054
:106840001C22019B5A43034B9B180022DA765A60A4
:1068500005B0F0BD6C2C00208402020004E100E0D1
:10686000140500000C0500001C23F7B5067917007D
:106870005E43334A9619B57D1122002D5DD1B1607A
:106880000121B582B77502680679FC32156202688B
:106890007343916001680A00FC321562284AD318DC
:1068A0009A8A9F68BA5C944664469A8A013292B288
:1068B0009A82244A8C50596801922A0000293CD1BE
:1068C0009A7D00928022520019009D8A009C14310A
:1068D000A5421DD2016802E09D8A954204D00D00B8
:1068E000FC352D6A002DF7D01D009C8A143594428A
:1068F000EAD00A000024FC3214622A88BA5C94466A
:1069000064462A88013292B22A80019A8C50D9E7D3
:10691000802309885B000F22994208D00368190080
:10692000FC310A6A002AFCD00122DA6000221C2312
:106930005E43034B9C190023A3751000FEBDC046A7
:106940006C2C00201C0500001C2302795A43034BC9
:106950009B18987D431E9841C0B270476C2C002054
:10696000C12330B54D4C9B00E25885B04C4D92058B
:106970004CD5AA6A002A49D000238122AB62C223E7
:1069800092009B00E250474B9A7E002A01D10132CF
:106990006260022269460A709021C9006258684606
:1069A000625069460392DA7D0A72DA680192002227
:1069B000DA751A7606CB90472B6A002B0FD000228F
:1069C000384B988A997D2A6288425BD29A8A996864
:1069D000895C9A8A013292B29A82334BE150AB6C55
:1069E000002B11D00023AB642E4B9A7E002A01D0DD
:1069F00001222260DA7D002A06D00022587EDA7554
:106A0000C0B2D968FFF71CFE05B030BDE3585B0784
:106A1000D2D5EB68002BCFD0A322224BD200D97D58
:106A2000002914D1E960A2585A7ED97D9142C3D180
:106A30001A7E002A16D0DA751A69D968DA6000223F
:106A4000587E1A76C0B25A76FFF7FAFDB4E70021F5
:106A5000E960597ED868A25842545A7E0132D2B2B7
:106A60005A76E1E79A7E002A01D1013262608121E3
:106A7000C22289009200A1500022587EDA75C0B26D
:106A8000D968E1E70029AAD06846017299680270C6
:106A900001919A7506CB9047A1E7C04600200040BF
:106AA000FC2000406C2C00201C050000F7B56B4654
:106AB000DD1D00230F00060028002B7001F0EEF909
:106AC000114AB41C13683B609768516813687918C1
:106AD0000131581CC91AA14211D20024A14209D087
:106AE00029260A493B40023389029B003143D318CF
:106AF00010605960287801F0EFF92000FEBD3618CB
:106B000016600124F6E7C046882C002066E00200EB
:106B100010B5012000F002FC10BD0000FF22054B63
:106B20009A6000221A605A608222D2009850024A6B
:106B300099507047882C00201404000070B506009E
:106B4000002000F0EBFB041E09D100F023FC05003F
:106B500000F024FC320001002800FFF7DFFF2000D6
:106B600070BD0000F7B50C4C06000F00002001A915
:106B7000A568FFF79BFF00280CD00721019B0E4062
:106B80002B40F60006390233BF0231439B003943E4
:106B9000E3185960F7BDC046882C0020F0B5114EAF
:106BA00085B004000F00012003A90192B568FFF72A
:106BB0007DFF002814D00723039A1C40E4003A33D9
:106BC0001C4313002B4002330132BF029B001540CF
:106BD000F318274302355F60AD00019B761973609F
:106BE00005B0F0BD882C0020F0B5154E85B005002D
:106BF0000F00022003A900920193B468FFF756FF2B
:106C000000281BD00723039A1D40ED007A331D4353
:106C1000130023400233BF029B00F3182F435F6031
:106C2000531C2340023302329B0000991440F31896
:106C300002345960A400019B3619736005B0F0BDA1
:106C4000882C0020F0B5194E85B005000F000320F8
:106C500003A900920193B468FFF728FF002822D00F
:106C60000723039A1D40ED00BA331D431300234050
:106C70000233BF029B00F3182F435F60531C234075
:106C8000023300999B00F3185960931C2340023390
:106C900003329B0001991440F31802345960A40098
:106CA0000A9B3619736005B0F0BDC046882C0020E1
:106CB000F0B51D4E85B005000F00042003A9009219
:106CC0000193B468FFF7F2FE00282AD007231D4085
:106CD0000223039AFF33ED001D43130023400233C8
:106CE000BF029B00F3182F435F60531C2340023305
:106CF00000999B00F3185960931C234002330199BB
:106D00009B00F3185960D31C2340023304329B00CC
:106D10000A991440F31802345960A4000B9B3619E9
:106D2000736005B0F0BDC046882C0020F0B5244D3E
:106D300085B006000F00062003A900920193AC68FD
:106D4000FFF7B4FE002838D007231E408223F60048
:106D5000FF331E43039BBF021A00224002329200FF
:106D6000AA18374357605A1C2240023200999200F9
:106D7000AA1851609A1C2240023201999200AA1866
:106D80005160DA1C224002320A999200AA1851601E
:106D90001A1D224002320B999200AA1851605A1D06
:106DA000063322401C400232023492000C99A400A7
:106DB0000D9BAA182D1951606B6005B0F0BDC0463F
:106DC000882C0020F0B585B00090D81C1E4C801097
:106DD0000191013003A916001D00A768FFF766FEA8
:106DE000002825D007230221009A1A40D300194316
:106DF000039BAA0511431A003A40981C0232013342
:106E00003B409200A218023351609B00019AE318A4
:106E10005A60A368039038405F1C3F1A033080001B
:106E2000BF002018AF4205D32A00310004F06EFAEB
:106E300005B0F0BD3A00310004F068FA2000EA1B0A
:106E400092B2F1190C30F1E7882C0020034B5868FE
:106E50001B68C01A43425841C0B27047882C0020BA
:106E6000F0B58FB0FFF7F2FF03000020834200D09F
:106E70007FE00322544E7768B368791C04933B404B
:106E800002339B00F3185D682B0013403ED0022BA9
:106E900000D070E04B1C0593049B059A1940023109
:106EA000890071184B680693AB0D07932B049B0D5B
:106EB0009C46049B934301339B00AA0D9A4232D90E
:106EC000002B00D17AE00499059ADCB2AB0D0A40A0
:106ED000191B330003329200B218C9B20C3302936B
:106EE0000092394B394A039101949C580021634622
:106EF000A806069A400FA047AB0D984226D1C11CA8
:106F0000059B8908CC18304B5C602CE0AF0D2D043C
:106F1000AD0D7F19049B7F183B4002339B00F31893
:106F2000791C5D68B0E70021AB0D0193049A059BC5
:106F3000A806134003339B00F3180093234B0391DF
:106F40000291F458400F6346069AD4E7204B80051F
:106F50001D40049B000C3B401F001B4B0237BF0031
:106F60000543DF197D60FFF771FF030001205840E2
:106F7000C0B20FB0F0BD0024AB0AAF0505933F0FC0
:106F800008AB0819BC420CD3CC198221A806C90051
:106F900000977558400F059A0021A8470028B2D1E4
:106FA000E1E7A2009446049A013410400230064AF8
:106FB00080001018624640689850E2E76A46147FE5
:106FC000320019000C328AE7882C002014040000DB
:106FD0003F00FFFF0378012B01D1014A1370704776
:106FE000A230002070B506000D001400002817D054
:106FF00004220C49280004F089F980212368281D07
:10700000043323603368084A490004F089F90023F7
:10701000984203DB2368181820600123180070BD14
:107020002060FAE798E002009DE00200F0B51C0045
:107030000023584FCBB03800079116000993FFF793
:1070400083FC051E02D000204BB0F0BD099A0AABAC
:107050009918079809AAFFF7C5FF0028F3D0509B9D
:10706000062B16D8180003F09DFE04333F4C5B6CD2
:107070007F00300004F0A8F9050009982B18FF2BB9
:1070800005D80AAB18182A00310004F03FF9002D8A
:10709000D9DB099B5D1980232C1D09955B009C425F
:1070A000D1D80AAB581904223B4904F02FF93B4DC3
:1070B00022000AA92800099404F028F9E2B2290064
:1070C0003800FFF7D1FB030058425841C0B2BBE77C
:1070D000802109980AAB4900091A32001818236860
:1070E00004F01EF90500D2E7802109980AAB490097
:1070F000091A1818636832000093236804F010F925
:10710000F0E7802109980AAB4900091A1818A3680A
:107110003200019363680093236804F001F9E1E70A
:10712000802109980AAB4900091A1818E36832004F
:107130000293A368019363680093236804F0F0F856
:10714000D0E7802109980AAB4900091A1818236969
:1071500032000393E3680293A3680193636800938A
:10716000236804F0DDF8BDE7802109980AAB4900E7
:10717000091A181863693200049323690393E368BA
:107180000293A368019363680093236804F0C8F82E
:10719000A8E7C0461021002098E00200A33000209C
:1071A000F0B51C000023C9B007930B0016005A1E4F
:1071B00093410A225B421A4055480D000292FFF7A4
:1071C000C3FB002875D1002C19D1079A08AB991878
:1071D000280007AAFFF706FF00286AD0300004F055
:1071E000F3F80500C22800D9C225079A08AB981801
:1071F00031002A0004F08AF8079B5D190795519A1F
:10720000202794464F9B63440493079B029908AA46
:10721000D21831335B1808A9CB180193029BD318FD
:107220000393039B9A4247D11D00019B01330093B6
:10723000019B11330593049BA34240D8009B2F7000
:10724000013B6F70AF701F70009B033501330093DB
:10725000009A059B9342EED10D23019A079813746F
:10726000033B5374039B433030331F70029B042253
:10727000C01808AB07902749181804F047F8079B77
:10728000254E1D1D2A0008A93000079504F03EF880
:10729000EAB21F4D31002800FFF7E6FA002808D1B6
:1072A0002800FFF751FB002803D1049B07909C4264
:1072B000ABD3200049B0F0BD17700132B1E74F9B4E
:1072C000A34220D94E9B1E5D3111CAB21300373341
:1072D000092900DC073B2B700F2333401A0037329B
:1072E000092B01D830331A006A70AF7003F0EEFF3B
:1072F000682280194378934300D12E26009B0134E5
:10730000013B1E70A0E74F9B509AE31AD65CDBE767
:107310001021002098E00200A3300020F0B5184EA4
:1073200089B033780500002B04D0164B00201B7861
:10733000AB4222D06A46144B6C4683CB83C283CBCC
:1073400083C203CB03C20F23104F00930133019379
:10735000083B0393380002330293FFF713FA00222D
:10736000954200D10A4A21003800FFF777F900283A
:1073700003D101233370034B1D7009B0F0BDC0462B
:10738000A1300020A030002078E002001021002071
:10739000D56F0200004870472D700200004870470A
:1073A000A171020070B500240125174B1B78A34280
:1073B00000D870BD2900154AE3001668144AF61873
:1073C0003078136881400B421AD08B43136001F070
:1073D000FBFE290032780F4B91401B680B400100E7
:1073E00091408B420CD17368002B09D07178013920
:1073F0004E427141091A484241411000C9B29847B2
:107400000134E4B2D1E7C046A3310020D0310020DE
:10741000CC310020C8310020F8B5124E07003000F2
:1074200000F0F8FB002817D10124BC400E4D2B685A
:10743000234214D1380001F0C7FE0C4B1A68002813
:107440000BD022431A602B6800221C43084B3000EB
:1074500019682C6000F092FBF8BDA243F2E7A34349
:107460002B60F9E7A8310020CC310020C831002082
:10747000A431002073B505000C0016000720042A73
:107480001DD901F087FD002815D0164B164A1D6046
:10749000164B1C70164B013C1E6000230326136024
:1074A000144AE4B21360FF2C0AD1134A0021134896
:1074B00000F04CFB03E001F03FFD0028E5D076BD75
:1074C000002201A9E300EB180E708A70CA709A7846
:1074D00018784A700A4A01F0CFFD013CE4B2002856
:1074E000E1D0ECE7D0310020C8310020A3310020EA
:1074F000A4310020CC310020A5730200A4E00200DA
:107500001974020010B50024074B1B789C4201D36C
:10751000002010BD054BE2001B680121D05C01F08A
:1075200011FE0134F0E7C046A3310020D031002025
:107530001FB5002101AA906003481180516000F03E
:1075400005F805B000BDC0460140000010B509496E
:107550000120FFF707FBFFF7DBFAFFF781FC0028AC
:10756000FBD1BFF34F8F044A044BDA60BFF34F8F58
:10757000C046FDE7A8E002000400FA0500ED00E0C7
:1075800030B509494C788A78631CDBB29A4200D145
:1075900000230D7800229D4204D003701820604320
:1075A0004A681218100030BDD8310020F0B500270D
:1075B00085B002ABDD1D0090280001912F7000F016
:1075C0006DFC02AB9E1D3000FFF7DAFF0424B842C9
:1075D00008D06B463C001B790370009B32784360F7
:1075E000064B5A70287800F077FC002C03D18022DB
:1075F000034B52035A60200005B0F0BDD831002083
:10760000FCE100E0084B09491A682F23C046C04638
:10761000C046C046C046C046C046C0468A4200D0AA
:10762000C046013BF2D17047282100200024F4001D
:1076300080220C4B920270B5DA678023D22201259A
:10764000094C5B029200A350403AA3506560FFF7DB
:10765000D9FFA5600024054B1C60FFF7D3FF044B46
:107660001C7070BD04E100E000100140F03100200A
:10767000E131002070B50024234B5C649C64DC6421
:107680001C655C609C60214B1B68A34232D0204A81
:1076900020498D58204A1268AD1A2D022D0A1A6809
:1076A000AA4214D8AD1AA4181A7CDE69002A0CD09C
:1076B00000221A74194A1268002A1ED09969586962
:1076C0009047002801D0FFF733FF002E13D1144B51
:1076D000144A197813788B4204D10133DBB2022BA0
:1076E0000FD013701378104A9B009C5080220F4BD0
:1076F00052035A6070BD3300D1E75A6998699047C8
:10770000E3E70023EDE7C046FC100140F431002020
:107710000405000000100140F0310020D4310020A9
:10772000EC310020ED310020E4310020FCE100E0EC
:10773000F0B5C349C34A0B68C3488BB002931478B1
:10774000037800229C4200D1B7E00133DBB2022B68
:1077500000D1B0E003700378BC4A9B009A58029BAA
:107760009B181B021B0A0B6001230193B84B0020DE
:1077700019780091B74909680391597809915968B6
:10778000049100999B788C4601210593AC4B07909E
:107790001B6806900893B04B1F78039B099CA44577
:1077A00000D08CE00699002901D0AB490F700799F1
:1077B000002902D0A249089C0C60A649002800D0EC
:1077C0000B60019B002B00D0A1E0039A0B68002402
:1077D0009B1A5A1E9341DBB20193002635009D4B44
:1077E0001B6803939C4B039A1B780693944B1B686E
:1077F0000293002C00D0B3E0009B9C4500D0D0E069
:10780000002D02D06146924B1970924B002E00D091
:107810001A601B68039A9A4202D1019A002A45D045
:10782000002B00D108E11B688C4A8D4C0393A558AE
:10783000029B8C4EEB1A1B021B0A03330093337816
:107840000192002B12D18023C13A5B02FF3AA35070
:10785000403AA350C02180220127834B9202490065
:107860005A501A602760FFF7CDFE3770039B009ACD
:10787000934200D21300A821029AC9009B181B0250
:107880001B0A6350019AA258521B1202120A5D1B76
:107890002D0203322D0AAA4208D9019BE3586350F6
:1078A000FFF7B0FE8022714B92025A6000226A4BB1
:1078B0001A700BB0F0BD02704DE7019256E76546B5
:1078C00018246C43049D2C1965460135EDB2AC4675
:1078D000059DAC4501D10025AC462578022D0AD086
:1078E000032D00D05AE7002B00D157E70020187471
:1078F000DB690800F7E765681E001C00002C00D15A
:107900004CE7A54200D1B5E02600E469F6E70B6834
:1079100000210C0008000E00002B05D1002900D129
:107920005BE74C4A136058E71D68954206D9002969
:1079300001D048490B60AA1A1A604EE7521B401941
:10794000DD681E60DF69002D07D0DC611C00029934
:107950009D6009180902090A59603B000199DBE79B
:107960002300E469596802980791081A4049000207
:10797000000A9F6888423DD8381818600021596075
:107980009960013119740021D9618A4206D01868C2
:107990001168884244D8081A1060DA611A0001267A
:1079A00027E71821009B5943049B5918009B01337A
:1079B000DBB200930098059B834201D10023009322
:1079C00001250B78AB4200D016E74B681D7C002DDB
:1079D00000D011E788685860C86898600869D86066
:1079E000496999610699002902D05D600D00B9E7E7
:1079F0000125B7E702990798091A0902090AB9424D
:107A000002D27F1A1F60B9E700211960B6E7C01BD8
:107A1000CF690791002F0DD11860DF61CB61E8E6D7
:107A2000110007920F688742F1D33F1A0F600F00D1
:107A30000799F1E73900F5E7FFF7FAFD36E7C046A9
:107A4000F0310020ED310020EC310020E431002045
:107A5000D8310020F4310020E0310020040500007E
:107A600000100140E131002000E100E0FCE100E015
:107A7000FEFF7F00B5420AD1DB690800002B06D16A
:107A800008480F00816008000791089306912C6850
:107A9000ED69F561002D00D180E62E6834192C6067
:107AA0007CE6C04600100140F7B5032401900E00AB
:107AB00015001F0014400720002C32D1002A30D0BE
:107AC000FFF7B6FD174B80201F60174BC0225D608B
:107AD000C525FF211C705C709E70144B40031C6018
:107AE000134B52001C70134BAD001C70124B98507E
:107AF0005A598A431100C0220A435A51A1221860E0
:107B000001990E48D2008150043D5A590C49114048
:107B1000C02212020A435A510A4BC25820000A4B93
:107B20001A60FEBDD4310020D8310020F43100208D
:107B3000EC310020ED31002000E100E000100140B8
:107B4000FF00FFFF04050000F031002010B50A4BD4
:107B50005C680823002C0CD0013B002A09D00028C7
:107B600007D000680133047C002C02D1230041744B
:107B70004261180010BDC046D8310020F0B5214F39
:107B800087B07B680500019103920824002B35D053
:107B9000002833D0013C042930D943690134002B3B
:107BA0002CD0427C00230291012A00D0029304AA27
:107BB000D61D3000337000F071F904AB981DFFF74B
:107BC000DFFC0424002810D00123002403700E4A97
:107BD0000E4B4560D3588360019BC360029B0361D9
:107BE000039B436104AB9B797B70307800F074F9A0
:107BF000002C03D18022064B52035A60200007B0AC
:107C0000F0BDC046D831002000100140040500003E
:107C1000FCE100E010B5094B5A680823002A0AD09D
:107C2000002808D04269002A05D0002302210374ED
:107C3000FFF7BCFC0300180010BDC046D83100207F
:107C4000030010B5DA6808001268002A04D0DA6868
:107C5000DB6851681B68984710BD0023C0B288726A
:107C60004B727047F0B5057AC368EDB29B68EA00C5
:107C70009B185C7985B001A964084C701C684C6045
:107C80001C798C7001249F795E79274229D0264285
:107C900027D1C7682D193F7BBD4222DAC56808325B
:107CA000AD687708AD186D79E540AF4219D1C3686A
:107CB0009B689A1813688B601379CB7053792340B3
:107CC0001D006B426B4102330B70037A92791B19D2
:107CD0002240DBB252010372103001F00BFD05B0FF
:107CE000F0BD012500222E400E708A60CA709A797C
:107CF0002A405201F0E773B504000E006B46DD1D0B
:107D0000002328002B7000F0C9F8002E02D1E36890
:107D1000002B15D16379A179DBB200228B420AD006
:107D200021689A008A1801332179DBB212689942DE
:107D300000D200236371E260E668731E9E41F6B2D2
:107D4000287800F0C9F8002E0AD000232000237202
:107D5000FFF788FF011E03D02000FFF771FFCDE77A
:107D600073BD10B50C00017800290DD1237AE268AB
:107D70000133127BDBB29A4207D923722000FFF74E
:107D800071FF011E01D110BD03212000FFF758FF34
:107D900001212000FFF7AFFFF5E70000F7B506006F
:107DA0001036019204001F00094A0300300001F060
:107DB000E7FB051E0AD1300001F08CFC6B461B79F5
:107DC00065712760A57123716572E5602800FEBDAD
:107DD000637D0200F7B56B460400DE1D0023300012
:107DE00033700F0000F05AF8A3792279DBB29A427F
:107DF00003D162791125002A10D062791125013A48
:107E000093420BD021689A008A18176001332279B7
:107E1000DBB29A4200D200230025A371307800F033
:107E20005BF8002D03D129002000FFF764FF280034
:107E3000FEBD0000F0B504001E00002387B00192D3
:107E400002AA10000F00137000F028F8657AEDB256
:107E5000002D01D10123637202AB187800F03CF8C9
:107E60001120002D12D16A460B4B1279029302ABFE
:107E700019002000039404971A73FFF7ABFF002842
:107E800004D1637A002B03D1A07AC0B207B0F0BD51
:107E9000002EF6D0B047F4E75B7C020070B5EFF33C
:107EA000108672B6094B0122596800290BD1084C83
:107EB0005A60E26F074D2A401A60E5670170002E94
:107EC00000D162B670BD0270F9E7C04648370020A5
:107ED00004E100E0FC06FFBC10B5084A5368002B23
:107EE0000BD0002809D1EFF3108372B6044914684F
:107EF0000C605060002B00D162B610BD48370020E6
:107F000000E100E070B505000024054BE358002BAC
:107F100001D0280098470434202CF6D170BDC0460B
:107F2000043200200A6810B50001134C002A10D05A
:107F3000538803339B00D318802220184068D20056
:107F40000E4C8018834202D21A68013205D10020FB
:107F500010BD23185B680833EEE79A88A24202D06E
:107F60001A88002A04D15A88033292009B18E9E744
:107F70000B600120ECE7C046F8320020FFFF000054
:107F800010B50D4C0D4963880D481B01C9188B892C
:107F9000002B06D10122496800F0A4FC04232370C1
:107FA00010BD052307492370033B8B80012200236A
:107FB000096800F097FCF3E770320020F8320020E7
:107FC000A422002018330020002307B504490093A1
:107FD000044A02330968044800F03EFC0EBDC04666
:107FE00018330020D0E00200A4220020002307B5AF
:107FF00001000093024A0233024800F02DFC0EBD3E
:10800000C8E00200A4220020002307B5010000936D
:10801000044A0133044800F01FFC031E00D00E2365
:1080200018000EBDC4E00200A422002013B50324F2
:10803000084B0948998842681B6889005918538879
:1080400004700020033300909BB2044800F004FC4D
:1080500016BDC0461833002070320020A422002034
:1080600010B5064B191D5888FFF75CFF002802D099
:10807000FFF7DCFF10BDFFF783FFFBE77032002046
:1080800037B5436805000C00002B2BD0224A11683D
:108090008B4227D35268934224D803221A4021D11D
:1080A0001E490089098988421CD129689868814243
:1080B00018D11B4841688B4204D98025ED0049192D
:1080C0008B4209D342690A25934207D98021C9000E
:1080D0005218934202D20122002522806842684150
:1080E000C0B23EBD0023238023880020012BF8D896
:1080F0000190208801A9FFF715FF002802D12388ED
:108100000133F0E7019B29689A688A42F1D16B60DC
:10811000024B1B892B81E4E7A4220020703200204F
:10812000F8320020F8B5060002201C001B4B0F009F
:108130001B781500034204D00330002A01D0002C24
:108140000FD1F8BD164A1B019B5C002B06D1A088FD
:108150002100FFF7E7FE002808D12060A388013343
:10816000A380A388012BEDD90A20EAE72368002E1B
:1081700003D0998832889142E9D1002F08D19B68B9
:1081800000202B6023686B60064B1B892B81D8E78E
:1081900019883A889142DAD1F1E7C0466C32002062
:1081A000F8320020703200201C23F0B51C00AD4DC9
:1081B00007002E6F8BB07443605D0138052800D92D
:1081C0004DE102F0F9FD0600790079003D013D0125
:1081D000AE01002F26D00124A34A1378A3431370C5
:1081E0001C2272439F4B0694D15C0239012908D8A6
:1081F0009B189A7D9D4B196C89181964596C8A1AC1
:108200005A641C237343974C185D05AB013805284D
:1082100000D926E202F0D0FD060209021502400252
:10822000490253022D19287903281DD802F0BAFDFE
:108230000C02232E8E4D2B78022B0AD02B7C022B86
:1082400000D044E2012405E0FFF7BEFE01232B71BC
:1082500007E0002424012B195868FFF7C7FE00230C
:108260002B55002800D186E001217F4A0E24137887
:108270008B431370B4E77F4C0023012221687E48B2
:1082800000F030FB0223A3800023E0E7794C206854
:10829000FFF7ACFE794B27685A88754B12019C4654
:1082A0009B1859685F60A78821601F81022361467F
:1082B000A38000235354CAE77343EB185A8A0292EF
:1082C00002996B4A0801002F0DD0D98813181A891A
:1082D000C81C801803225242511A5A891881521818
:1082E0005A8101247CE7121811895768187C89008B
:1082F0007F18062800D9A1E002F054FD2C803F57DA
:108300001D9304005E4C1C227243564B9B18D88868
:10831000029B574A1B01D3181A89C11C89180322D2
:10832000198152425989121A52185A81544B9C424F
:1083300000D1EBE054E70023524805A943601C3309
:108340007343EB189B690360FFF79AFE002801D185
:108350000A2445E70023221DAA180093390001339F
:10836000454800F079FA1C2202237243AD182B74A1
:108370000E240028C7D10BB0F0BD22000023390025
:108380000C32AA18083100933B48013300F064FA1C
:108390001C231A007243AA18917D0122002900D0E3
:1083A00002327343ED182A74E2E7304A536C002B13
:1083B00000D194E10724106C013B411C214015348D
:1083C000744311642749C0000C19A18A53648900C1
:1083D000791800271518AB8800978258264800F0B6
:1083E0003BFAA38AAA889B18A382A37D013BDBB238
:1083F000A375BB42BCD101232374B9E7220000233B
:108400000832AA18391D00931B48013300F024FAE2
:108410001C227243AB5CAD18033B591E8B410533E4
:10842000A5E7184B5868FFF7EFFD04001C20062352
:1084300070432D182B74002C9DD064E70F2462E745
:10844000002F00D04DE71C237343EB1802931B79D8
:108450000393012B43D0002B16D0022B56D00F24B0
:10846000BEE6C046803200206C320020243200205C
:10847000F832002018330020A4220020703200209F
:108480001D1D0000F831002039000A270C2205A824
:10849000FAF7BCFC029B05A8DB680A24039305934A
:1084A00002ABFF183900FFF7EBFD00280ED006984D
:1084B000029A8388D38003881381FFF7A5FD3A8849
:1084C000884B12019B18012204009A731C2002237E
:1084D00070432D182B71002C00D14CE726E7A01D0E
:1084E0002818814B05AA3900FFF71CFE041E10D185
:1084F0000698FFF789FD7C4B04009A88794B12019E
:108500009B186A46127B9A730A28E4D100230693CB
:1085100077E6082239007448FAF778FC0A2CF5D07F
:1085200004E7002F00D0DCE6704B1A7B002A0AD04B
:108530001F7318780138062891D802F029FC3953A6
:108540005C5F90626C0018780728F2D802F020FC7B
:1085500004F1F1151F2E2E131A89624901321A8176
:10856000002208785A801A73424242419A72097C6A
:108570004A424A41DA72012207E05D4958688A8816
:108580004088033212188A8002221A70D1E7598873
:108590005748544A090152180468516854600160F0
:1085A00081881181022282800432EEE70722ECE703
:1085B0009A7A002A08D000224A499A728A89002AA7
:1085C00002D1897B00290CD1DA7A002A0ED0002250
:1085D000DA72444A918B002908D1927F002A05D093
:1085E00001225A80FFF73CFD040074E700221A7054
:1085F0005A805A608AE7FFF719FDF5E7FFF7C0FCDC
:10860000F2E706221A705A88364B12019B185868F6
:10861000FFF7ECFCE8E707221A7000225A60FFF728
:10862000D3FCE1E700221A701BE001221A701B3212
:108630005643A61932899A81B288DA81F2689A6023
:108640000FE002221A701A325643A61932899A8113
:10865000B288DA81F2689A60327C063A5042504120
:1086600018741800FFF74EFC1C22206F00215043A5
:108670002018FAF7CBFB626F002A06D00321236F84
:10868000013A01330B4023676267636F002B18D0F8
:108690000020FFF789FD6EE603221A701932564357
:1086A000A619F2889A813289C7E704221A70183213
:1086B0005643A619F2889A810022DA81D1E7052271
:1086C000B1E704210B4A13788B43137053E602235E
:1086D000084A11780B4301218B43137016E71B687E
